:020000040000FA
:10000000D8140010AD350000B5350000B73500003C
:10001000B9350000BB350000BD3500000000000010
:10002000000000000000000000000000BF350000DC
:10003000C135000000000000C3350000C5350000D8
:10004000C735000033080000D3080000C7350000A2
:10005000C7350000A10C00006B0B0000210B000055
:10006000DF0C0000C7350000C7350000C7350000B1
:10007000C7350000C7350000C7350000C735000090
:10008000C7350000C7350000C7350000C735000080
:10009000C73500001D0D0000C7350000C735000042
:1000A000C7350000C7350000C7350000C735000060
:1000B000C7350000C7350000C7350000C735000050
:1000C000C7350000C7350000C735000000F002F852
:1000D00000F05AF80AA090E8000C82448344AAF188
:1000E0000107DA4501D100F04FF8AFF2090EBAE886
:1000F0000F0013F0010F18BFFB1A43F0010318475C
:10010000C8390000E83900000A444FF0000C10F82C
:10011000013B13F0070408BF10F8014B1D1108BF85
:1001200010F8015B641E05D010F8016B641E01F825
:10013000016BF9D113F0080F1EBF10F8014BAD1C75
:100140000C1B09D16D1E58BF01F801CBFAD505E093
:1001500014F8016B01F8016B6D1EF9D59142D6D3ED
:10016000704700000023002400250026103A28BF15
:1001700078C1FBD8520728BF30C148BF0B60704719
:100180001FB51FBD10B510BD03F066FC1146FFF78B
:10019000F7FF00F0DDF903F084FC03B4FFF7F2FF92
:1001A00003BC03F089FC000010B50A46202801D2E8
:1001B000034601E0A0F120031946202814D2464B43
:1001C0001B684FF0030404FA01F423EA0403434CD0
:1001D000C4F8A831404B1B6802FA01F443EA040357
:1001E0003E4CC4F8A83113E03D4B1B684FF00304AC
:1001F00004FA01F423EA0403384CC4F8AC31384B58
:100200001B6802FA01F443EA0403344CC4F8AC312D
:1002100010BD0146202903D20A462F4B186803E07F
:10022000A1F120022E4B186820FA02F303F003001C
:10023000704770B506462B4804683046FFF7E9FF63
:10024000054635B1012D06D0022D06D0032D08D16B
:1002500005E0042505E0012503E0022501E008256D
:1002600000BF00BFB4FBF5F4204670BD01290AD1E0
:100270001D4A12681D4B00EA030342EA0302174BB2
:10028000C3F8C4200AE049B9174A1268174B23EA99
:10029000000302EA0302114BC3F8C4207047002098
:1002A0001349086030BF70470420124908600020DD
:1002B0000F49086030BF704704200E4908600120D4
:1002C0000B49086030BF704704200A4908600320CA
:1002D0000749086030BF7047A8C10F4000C00F40F9
:1002E000ACC10F4000030010C4C00F40DEF7EFEFB9
:1002F000C0C00F4010ED00E000BFFEE7FFFFFFFFB2
:1003000010B5002807DACA06140EF94A00F00F03E8
:100310001B1FD45403E0CA06130EF64A135410BD33
:100320002DE9F04105460C461646AD2E55D101206B
:1003300000F003FD00BFF04800780128FBD0012049
:1003400001218140ED4A430942F8231000BFEC48E7
:100350000088C0F30B00EB490880E9480068C0F34F
:100360000F30E94908800020E54908600120E24992
:100370000870E44800782855E24800880112601CA3
:100380002954E1480178A01C2954DF480088011253
:10039000E01C2954DD480178201D2954DB480088E1
:1003A0000112601D2954DA480178A01D2954D8484B
:1003B00000880112E01D2954401CC2B22946FE20CB
:1003C00000F0D9FD074604F10E00C2B23946D1480B
:1003D00001F0E9F8D04800F044FEBDE8F08110B526
:1003E0000120CE490870FA2048600A460021CC4816
:1003F00001F08EFF0020CB49087001204870C870C2
:1004000000208870087131208860C54802F07EF8AD
:1004100014210220FFF774FF022000F08EFC01215E
:10042000BF4802F035F810BD10B50120BB49087077
:10043000022048600A4600214FF0402001F068FF8A
:100440000020B849087001204870C87000208870EA
:100450000871042088604FF0402002F057F80A210C
:100460000120FFF74DFF012000F067FC01214FF054
:10047000402002F00DF810BD1CB501204FF496414C
:1004800010230022CDE900100146A74800F0A8FF84
:1004900001204FF416410F230022CDE90010014640
:1004A0009C4800F09DFF01204FF4165111230022BB
:1004B000CDE9001001469D4800F092FF1CBD10B52B
:1004C0009B4800F0B7FD9B4800F0B4FD994800F050
:1004D000BDFD974800F0C5FD10BD10B5964800F071
:1004E000A9FD964800F0A6FD954800F0A3FD8A48B6
:1004F00000F0A0FD934800F09DFD934800F09AFDA8
:10050000924800F097FD924800F094FD914800F069
:1005100091FD914800F08EFD904800F08BFD9048D1
:1005200000F088FD844800F091FD844800F08EFDC5
:10053000794800F08BFD834800F088FD824800F088
:1005400085FD824800F082FD814800F07FFD10BDEE
:100550000024FFF7C2FFFFF7B2FFFFF78DFFFFF7A1
:1005600063FFFFF73CFF744800F07BFD00BF05E030
:100570007C484078401C7B494870641C7A4884421F
:10058000F6DBEB20774948706B4800F05FFDAD2249
:1005900009217448FFF7C4FE01230B22032173488D
:1005A00000F09EFD0020724908707249087072497F
:1005B0000870724908606EE07148027871495A48C3
:1005C00001F0C3F8704908600020704908605C4879
:1005D00000F03CFD0DE05A4800F043FD69496B4ACC
:1005E0001268885C00F018FC68480068401C674985
:1005F000086066480068644909688842EBDB604827
:1006000002786049434801F0A0F85F490860002083
:100610005E4908600AE05B495C4A1268885C01F048
:1006200011FA5A480068401C584908605748006849
:10063000554909688842EEDB494800F01DFDD0B1FC
:100640004C480078B8B14C480078012808D101F036
:1006500069F905460A222946344800F0A4FF07E05C
:1006600001F055F905460A222946304800F09BFF63
:100670000020404908703A4800F0FEFC58B93D4857
:10068000007840B901203B4908703B48007880F071
:100690000100394908708FE72DE9F04104460E4604
:1006A0001546A02D0BD132462146A02001F04AFA72
:1006B0000746B01DC2B239461B4800F074FFFB2D3F
:1006C00002D1012032490870A5F1500008280DD24E
:1006D000DFE800F00460697278798A9B01F017F90D
:1006E00007460A223946114800F05DFF9EE00000EF
:1006F00018ED00E000E400E06C02001080E100E092
:10070000740200106E02001070020010B602001099
:10071000B80200100000014058000010A8020010AC
:1007200000800040040300100080094000C0004029
:1007300094000010A00000103400001040000010D1
:100740004C00001064000010700000107C000010CD
:100750008800001004000010100000101C000010A1
:10076000280000107E02001000127A00AC00001079
:10077000B0020010B2020010B1020010C00200105E
:100780008602001010030010880200108C02001076
:100790005C02001001F0C6F807460A223946FE48FE
:1007A00000F001FF42E001F0C9F807460A2239468D
:1007B000F94800F0F8FE39E00222F849F64800F066
:1007C000F2FE33E032E02178607801EB0020F4495A
:1007D00008800846008801F0BDF807460A2239461D
:1007E000ED4800F0E0FE21E02178607801EB002088
:1007F000EB4908800846008801F0C3F807460A2242
:100800003946E54800F0CFFE10E02178607801EB32
:100810000020E34908800846008801F0BFF8074639
:100820000A223946DC4800F0BEFE00BF00BFBDE82A
:10083000F08110B500214FF0402001F0B0FC0128FC
:1008400046D100214FF0402001F006FDD548006858
:10085000401CD449086008460068C82190FBF1F2AA
:1008600001FB120028B9D04800F015FC0120CF4947
:100870000870CF48007858B3CE49086800EBD071B3
:100880004910B0EB410103D0CB4800F0DFFB12E090
:10089000C94800F0E6FBC748006860B1C748006877
:1008A0004000C6490860C64800F0E6FBC349096835
:1008B0000843C2490860BF480068401CBD49086041
:1008C00008460068392803DD00200860B849087030
:1008D00010BD10B50021BB4801F061FC01284AD1D0
:1008E0000021B84801F0B8FCB748007888B9B7488B
:1008F0000078401CC0B2B5490870072809D1002013
:100900000870F820B2494870AD220921B048FFF7BD
:1009100007FDB0480068401CAE4908600846006802
:100920005021B0FBF1F201FB120058B90020A6499A
:100930000870A94800F0AFFBA84800F087FB002032
:10094000A2490870A64801680068401CA44A1060CB
:1009500042F2107081420DDD002011460860A1486E
:10096000007820B9502202219F48FFF795FE002011
:100970009C49087000BF10BD10B59C4800F05AFBA0
:100980009A4800F06EFB9A4800F054FB984800F03B
:1009900068FB984800F04EFB964800F062FB9648D2
:1009A00000F048FB944800F05CFB944800F042FBE8
:1009B000924800F056FB924800F03CFB904800F053
:1009C00050FB904800F036FB8E4800F04AFB8E4802
:1009D00000F030FB8C4800F044FB8C4800F02AFB10
:1009E0008A4800F03EFB8A4800F024FB884800F06B
:1009F00038FB884800F01EFB864800F032FB864832
:100A000000F018FB844800F02CFB844800F012FB37
:100A1000824800F026FB824800F00CFB804800F082
:100A200020FB804800F006FB7E4800F01AFB7E4861
:100A300000F000FB7C4800F014FB7C4800F0FAFA60
:100A40007A4800F00EFB7A4800F0F4FA784800F09B
:100A500008FB784800F0EEFA764800F002FB764892
:100A600000F0E8FA744800F0FCFA744800F0E2FA8A
:100A7000724800F0F6FA724800F0DCFA704800F0B4
:100A8000F0FA704800F0D6FA6E4800F0EAFA6E48C4
:100A900000F0D0FA6C4800F0E4FA6C4800F0CAFAB2
:100AA0006A4800F0DEFA6A4800F0C4FA684800F0CC
:100AB000D8FA684800F0BEFA664800F0D2FA6648F4
:100AC00000F0B8FA644800F0CCFA644800F0B2FADA
:100AD000624800F0C6FA624800F0ACFA604800F0E4
:100AE000C0FA604800F0A6FA5E4800F0BAFA5E4824
:100AF00000F0A0FA5C4800F0B4FA5C4800F09AFA02
:100B00005A4800F0AEFA5A4800F094FA584800F0FB
:100B1000A8FA584800F08EFA564800F0A2FA10BD24
:100B200070B5554802F014FA064606F00E04062C7D
:100B300009D1514802F0F0F9054605F09E0515B1BE
:100B4000E8B200F045FC042C01D00C2C07D14A4837
:100B5000007D10F0010F02D0474800F068FB022C26
:100B600002D1454800F0BCFB70BD70B5434802F0AF
:100B7000EFF9064606F00E04062C09D13F4802F0B4
:100B8000CBF9054605F09E0515B1E8B200F020FC52
:100B9000042C77D00C2C74E000C0004091020010AF
:100BA000C6020010600200108800001090020010C1
:100BB0006C02001068020010A00000107402001007
:100BC0009400001000800040CA020010CB02001008
:100BD0007E0200109C02001040000010580000101F
:100BE000980200105C0200107C020010B800001097
:100BF000C4000010D0000010DC000010E80000105D
:100C0000F4000010000100100C0100101801001089
:100C100024010010300100103C01001048010010B8
:100C200054010010600100106C01001078010010E8
:100C300084010010900100109C010010A801001018
:100C4000B4010010C0010010CC010010D801001048
:100C5000E4010010F0010010FC0100100802001077
:100C600014020010200200102C02001038020010A4
:100C700044020010500200100080094000000140B2
:100C800000E007D13348007D10F0010F02D0314859
:100C900000F0CDFA022C02D12E4800F021FB70BDED
:100CA00070B52D4802F054F9064606F00E04062CE5
:100CB00009D1294802F030F9054605F09E0515B125
:100CC000E8B200F085FB042C01D00C2C01D12248A5
:100CD000007D022C02D1204800F002FB70BD70B5EF
:100CE0001E4802F035F9064606F00E04062C09D11E
:100CF0001A4802F011F9054605F09E0515B1E8B253
:100D000000F066FB042C01D00C2C01D11348007DAF
:100D1000022C02D1114800F0E3FA70BD10B5012198
:100D20000F4800F036FA38B10E4800880E490880A6
:100D30000E4800880E49088010BD00F01F020121F6
:100D4000914042094FF0E02303EB8202C2F8001108
:100D5000704700000000014000C0004000C0094092
:100D6000AC00001070020010B80200106E020010FB
:100D7000B602001010B504469B48007830B1012837
:100D80000CD0022818D005283ED12BE07B2C04D1B2
:100D900095480078401C9449087035E0002093493C
:100DA000087093490860EA2C00D030E08E48007843
:100DB000401C8D49087027E08E488D4909684454CD
:100DC0008A48007820448949087089480068401C96
:100DD0008749086008460068082802D30520824930
:100DE000087011E081480078844200D00EE00120B4
:100DF00081490870002081490870814802780821E3
:100E00007C48FFF78DFA02E000BF10BD00BF002054
:100E10007549087000BFF8E710B5044672480078BD
:100E2000052804DA714800782044704908706E483B
:100E30000078062857D2DFE800F0030B1921293E7D
:100E40007B2C04D168480078401C674908704AE050
:100E5000EA2C00D04AE00020644908706449086028
:100E600061480078401C604908703CE064480470A8
:100E70005D480078401C5C49087034E061480470AB
:100E800059480078401C584908702CE05948584986
:100E90000968445456480068401C55490860084693
:100EA000006858490978884204D34F480078401CAC
:100EB0004D49087017E04D480078844200D014E096
:100EC000FA224C49504802F092FD4D4802784D48B4
:100ED00001784D48FFF724FA0120474908700020A7
:100EE0004649087002E000BF10BD00BF00203E4927
:100EF000087000BFF8E7F0B503460C460021002556
:100F000000274FF0010C0BB90020F0BD14E0CE1308
:100F10004FF6FF7000EA41011878284100F0010007
:100F200001436D1C072D03DD00255B1C601E84B290
:100F300016B148F205004140002CE8DC002209E02F
:100F4000CE134FF6FF7000EA410116B148F20500DA
:100F50004140521C102AF3DB4FF4004207E00A42E2
:100F600002D047EA0C0087B252104FEA4C0C002A1C
:100F7000F5D13846C9E72DE9F04107460E4614463B
:100F80004FF00008AC2021490870BD204870084689
:100F9000877008EB070000F0FF080846C47008EBF4
:100FA000040000F0FF08002509E0715D174A281DC4
:100FB0001154705D404400F0FF08681CC5B2A542A2
:100FC000F3DB21463046FFF796FF114908800846BB
:100FD00001780E4A201D11540D484178601D1154AE
:100FE0001046BDE8F0810000D5020010CC020010D0
:100FF000D00200103C040010CA020010CB02001006
:10100000D6020010D702001038050010320600107A
:10101000D802001010B5002807DACA06140E6D4A6F
:1010200000F00F031B1FD45403E0CA06130E6A4AD4
:10103000135410BD70B5044625462A7A2E79012333
:1010400003FA06F1287800F015FE70BD70B504466D
:1010500025462B79012202FA03F1287800F01EFEC2
:1010600070BD70B5044625462B79012202FA03F1C2
:10107000287800F01DFE70BD70B504460025264698
:10108000307800F01FFE0546307925FA00F000F0B8
:101090000105284670BD70B505462C462046FFF771
:1010A000EBFF38B12379012202FA03F1207800F036
:1010B000FFFD06E02379012202FA03F1207800F017
:1010C000EDFD70BD70B505460C4604F001061EB975
:1010D0002846FFF7C6FF02E02846FFF7B7FF70BDBE
:1010E0002DE9F04105460C4616461F46A846042049
:1010F0000246384B0C3B19684FF6FF031940374B3B
:101100000B4343EA0221334B0C3B196000BF34B15F
:10111000012C09D0022C0CD0032C14D10EE0314646
:101120001220FFF777FF0EE031461320FFF772FF22
:1011300009E031461420FFF76DFF04E03146152029
:10114000FFF768FF00BF00BF34B1012C08D0022CAC
:101150000AD0032C10D10BE0122000F02EF80BE087
:10116000132000F02AF807E0142000F026F803E02E
:10117000152000F022F800BF00BF98F804300122CB
:1011800002FA03F198F800003A4600F0A6FDBDE827
:10119000F08170B504460D4620782A46616800F05B
:1011A000B7FD40B12379012202FA03F1207800F063
:1011B000DAFD012070BD0020FCE700F01F020121D4
:1011C000914042094FF0E02303EB8202C2F8001184
:1011D0007047000018ED00E000E400E00000FA05B0
:1011E00010B5002807DACA06140EF74A00F00F03FC
:1011F0001B1FD45403E0CA06130EF44A135410BD47
:101200000146F348814201D100207047F1488142F4
:1012100001D10120F9E7F048814201D10220F4E731
:10122000EE48814201D10320EFE7FF20EDE7F8B55A
:1012300006463046FFF7E4FF04464EE00023012255
:101240006946304601F087FD0546EDB304EB8400A6
:1012500000EBC410E24901EB80000069C1B204EB6D
:10126000840000EBC410DE4A02EB8000C068401C22
:10127000C0B2814207D104EB840000EBC4101146D8
:1012800011F8200038B39DF8001004EB840000EB47
:10129000C410D34A02EB800000F58A7004EB84028C
:1012A00002EBC412CE4B03EB8202D268815404EBF2
:1012B000840000EBC410194601EB8000C068401C9C
:1012C000C0B204EB840100E006E001EBC4111A4651
:1012D00002EB8101C86000E000E0AFE700BFF8BDAD
:1012E00070B505462846FFF78BFF04460022012112
:1012F000284601F08FFD00BF284601F043FE01287B
:10130000FAD02AE004EB840000EBC410B44A02EBEC
:101310008000143004EB840202EBC412B04B03EBE8
:1013200082029268811800230122284601F0C8FC3D
:1013300090B104EB840000EBC410A94901EB8000DC
:101340008068401CC0B204EB840101EBC411A44AC4
:1013500002EB8101886000E013E004EB840000EB05
:10136000C4109F4901EB80004068C0B204EB8401C7
:1013700001EBC4119A4A02EB81018968C9B2884223
:10138000C0D100BF04EB840000EBC410944901EB12
:1013900080004068C0B204EB840101EBC411904AA4
:1013A00002EB81018968C9B2884208D1002201217B
:1013B000284601F02FFD00208A49085507E001204A
:1013C0008849085501221146284601F023FD70BDC9
:1013D00070470160032242710022027182717047DE
:1013E0002DE9F04786B004460F4692461E46DDE9D9
:1013F0000E892046FFF704FF0546414604A8FFF783
:10140000E8FF03A801F04FFE7148844216D1012085
:101410008DF8060000208DF808008DF807000220E6
:101420008DF8050000208DF8040001A800F052FEA0
:1014300003208DF8050001A800F04CFE65488442A9
:1014400016D101208DF8060000208DF808008DF8D7
:10145000070010208DF8050000208DF8040001A879
:1014600000F038FE0F208DF8050001A800F032FED4
:101470005948844216D101208DF8060000208DF8CD
:1014800008008DF807000A208DF8050000208DF86F
:10149000040001A800F01EFE0B208DF8050001A835
:1014A00000F018FE4D48844214D102208DF8060049
:1014B00000208DF808008DF807008DF805008DF8E4
:1014C000040001A800F006FE01208DF8050001A827
:1014D00000F000FE04A9204601F02CFA03A92046E2
:1014E00001F062FD3946204601F015FB0122002182
:1014F000204601F08FFC01220221204601F08AFCE7
:1015000000203849485505EB850000EBC5103449EB
:1015100001F82090002005EB850101EBC511304A50
:1015200002EB8101C86005EB850101EBC51102EBFF
:101530008101086105EB850101EBC51102EB810119
:10154000486005EB850101EBC51102EB8101886064
:101550001F48844206D131460520FFF741FE052091
:1015600000F065F91B48844206D131460620FFF79A
:1015700037FE062000F05BF91748844206D1314659
:101580000720FFF72DFE072000F051F91348844291
:1015900006D131460820FFF723FE082000F047F966
:1015A00006B0BDE8F0872DE9F04781460E461546A6
:1015B000B04600274846FFF723FE044600220121DB
:1015C000484601F027FC39E018ED00E000E400E0B7
:1015D00000C00040000001400080094000C00940F8
:1015E0002C070010E002001098F8001004EB8400B3
:1015F00000EBC410944A02EB8000143004EB840228
:1016000002EBC412904B03EB82025268815408F142
:10161000010804EB840000EBC410194601EB8000C4
:101620004068401CC0B204EB840101EBC4111A46AF
:1016300002EB810148607F1C681EC5B2002D14DDDD
:1016400004EB840000EBC4107F4901EB800080684C
:10165000C1B204EB840000EBC4107B4A02EB8000B3
:101660004068401CC0B28142BED17848005D18B9C4
:101670004846FFF735FE04E001221146484601F0D6
:10168000C9FB3846BDE8F0872DE9F04781460E4694
:101690001546B04600274846FFF7B2FD0446002233
:1016A0000121484601F0B6FB29E098F8001004EB50
:1016B000840000EBC410644A02EB8000143004EB99
:1016C000840202EBC412604B03EB82025268815425
:1016D00008F1010804EB840000EBC410194601EB8B
:1016E00080004068401CC0B204EB840101EBC411CF
:1016F0001A4602EB810148607F1C681EC5B2002DAE
:1017000014DD04EB840000EBC4104F4901EB8000B2
:101710008068C1B204EB840000EBC4104A4A02EBBB
:1017200080004068401CC0B28142BED14748005D85
:1017300018B94846FFF7D4FD04E001221146484697
:1017400001F068FB3846BDE8F0872DE9F047814697
:101750000E461546B04600274846FFF751FD0446A1
:1017600000221146484601F055FB29E004EB8400B5
:1017700000EBC410344901EB800000F58A7004EBE3
:10178000840101EBC411304A02EB81010969405C1C
:1017900088F8000008F1010804EB840000EBC41095
:1017A000114601EB80000069401CC0B204EB8401CB
:1017B00001EBC41102EB810108617F1C681EC5B2F8
:1017C000002D13DD04EB840000EBC4101E4901EB77
:1017D0008000C068C0B204EB840101EBC4111A4A56
:1017E00002EB81010969C9B28842BFD101220021FF
:1017F000484601F00FFB3846BDE8F0872DE9F0417F
:1018000005460E460024002700BF0CE029190123DD
:101810001A460F4801F054FA002700E07F1CB7F584
:101820007A7FFBDB641CB442F0DBBDE8F08100F0A2
:101830001F020121914042094FF0E02303EB820295
:10184000C2F80011704700002C070010E0020010E1
:1018500000C0004070B502460B464FF6FF700021F5
:10186000082400BF10E0555C6840082409E010F02F
:10187000010F04D040084AF20105684000E040082A
:10188000641E002CF3D1491C9942ECDB4A4E3070A7
:10189000050A7570050CB570050EF57070BD2DE963
:1018A000F04304460D4616461F46DDE907894348C6
:1018B00004704348047041484570414845703F48B2
:1018C00086703F4886703D48C7703D48C7703B48AA
:1018D00080F804803A4880F80480384880F8059001
:1018E000374880F8059006213448FFF7B3FF3248A7
:1018F00000783349887130484078C8712E48807824
:1019000008722D48C07848720846BDE8F0830CB5CF
:101910000120002105230A46CDE900100621FFF72A
:10192000BEFF0CBD0CB50220002105230A46CDE9FF
:10193000001006210120FFF7B2FF0CBD0CB50420FA
:10194000002105230A46CDE9001006210120FFF7FA
:10195000A6FF0CBD1CB50446B4F5FA7F01DA4FF4BE
:10196000FA7441F28830844200DD0446E0B221126C
:10197000FF238022CDE9001006210120FFF78FFF11
:101980001CBD1CB50446E0B2211200238122CDE922
:10199000001006210120FFF782FF1CBD1CB5044684
:1019A000E0B2211201238122CDE900100621184660
:1019B000FFF775FF1CBD0000E4020010E8020010F4
:1019C0007C0F0010F0B503460C46002100250027CF
:1019D0004FF0010C0BB90020F0BD14E0CE134FF610
:1019E000FF7000EA41011878284100F0010001432E
:1019F0006D1C072D03DD00255B1C601E84B216B133
:101A000048F205004140002CE8DC002209E0CE133A
:101A10004FF6FF7000EA410116B148F2050041405F
:101A2000521C102AF3DB4FF4004207E00A4202D0B6
:101A300047EA0C0087B252104FEA4C0C002AF5D14D
:101A40003846C9E710B504465A480078062871D2CE
:101A5000DFE800F0030B171F273FAC2C04D15548DB
:101A60000078401C5349087064E0BD2C00D064E04D
:101A70000020514908604F480078401C4D490870CB
:101A800058E04E4804704B480078401C49490870A3
:101A900050E04B48047047480078401C45490870A6
:101AA00048E0484844490968445443480068401C99
:101AB000414908600846006841490978884207D3CF
:101AC0003C480078401C3B49087000203E490870A3
:101AD00030E03D48007810B1012806D102E03B48D3
:101AE000047002E03948447000BF00BF36480078F7
:101AF000401C3549087008460078022818D100209B
:101B00000870FA222F49324801F071FF2C48017801
:101B10002F48FFF757FF2D490988884200D00BE076
:101B200026480278264801782948FEF7B5FD00E0EE
:101B300000E002E000BF10BD00BF00201D4908709A
:101B400000BFF8E72DE9F04107460E4614464FF076
:101B50000008AC201F490870BD20487008468770F7
:101B600008EB070000F0FF080846C47008EB04000B
:101B700000F0FF08002509E0715D164A281D115488
:101B8000705D404400F0FF08681CC5B2A542F3DB5D
:101B900021463046FFF716FF0C49088008460178B9
:101BA0000C4A201D115409484178601D11541046FB
:101BB000BDE8F081FA020010F4020010F8020010F3
:101BC000F9020010880F0010F0020010FC02001053
:101BD000841000107E11001001460020052912D249
:101BE000DFE801F00305080B0E00F8480CE0F748A9
:101BF000203009E0F548403006E0F448603003E06A
:101C0000F248803000E000BF00BF7047014600206E
:101C1000052912D2DFE801F00305080B0E00EB489E
:101C20000CE0EA48203009E0E848403006E0E748A8
:101C3000603003E0E548803000E000BF00BF70473F
:101C400001460020052912D2DFE801F00305080B48
:101C50000E00DE480CE0DD48203009E0DB48403073
:101C600006E0DA48603003E0D848803000E000BF8A
:101C700000BF70472DE9F04107460D46164638462D
:101C8000FFF7AAFF04463CB11EB12068284320603C
:101C900002E02068A8432060BDE8F08170B50646E8
:101CA0000C463046FFF798FF054605B1AC6170BDA4
:101CB00070B506460C463046FFF78EFF054605B167
:101CC000EC6170BD70B505462846FFF785FF0446F8
:101CD0000CB1606970BD0020FCE718B912B9BC4BAB
:101CE000196014E0022803D112B9BA4B19600EE052
:101CF00020B9012A02D1B84B196008E0022804D1AA
:101D0000012A02D1B54B196001E000BFFEE7704720
:101D100003463BB932B9B248006820FA01F000F03E
:101D200001007047022B07D132B9AE48006820FA93
:101D300001F000F00100F4E743B9012A06D1AA48F6
:101D4000006820FA01F000F00100EAE7022B08D158
:101D5000012A06D1A548006820FA01F000F0010030
:101D6000DFE700BFFEE710B9A14A116006E00228D4
:101D700002D1A04A116001E000BFFEE7704770B5D4
:101D800004460D461646324629462046FFF772FFA6
:101D900070BD70B504460D4629462046FFF77EFF0C
:101DA00070BD70B504460D4629462046FFF780FFFA
:101DB00070BD10B504462046FFF784FF10BD70B516
:101DC00004460D461646324629462046FFF785FF53
:101DD00070BD70B504460D4616463246294620466B
:101DE000FFF796FF70BD10B503460C462146184616
:101DF000FFF7B9FF10BD2DE9F04107460D46164625
:101E00003846FFF7E9FE04463CB11EB1206928437D
:101E1000206102E02069A8432061BDE8F0812DE93E
:101E2000F04180460E4615461F464046FFF7EEFE3F
:101E300004468CB147B11EB16088284360800BE036
:101E400020882843208007E01EB16088A843608076
:101E500002E02088A8432080BDE8F0812DE9F04110
:101E600080460E4615461F464046FFF7CFFE044605
:101E70008CB147B11EB1608A284360820BE0208A92
:101E80002843208207E01EB1608AA843608202E0F6
:101E9000208AA8432082BDE8F0812DE9F041074661
:101EA0000E4614463846FFF7B1FE05461DB10EB189
:101EB0006C8300E02C83BDE8F0812DE9F0410746FA
:101EC0000E4614463846FFF7A1FE05461DB10EB179
:101ED000EC8300E0AC83BDE8F08170B506460D46AA
:101EE0003046FFF793FE044624B10DB1E08A70BD81
:101EF000A08AFCE70020FAE72DE9F04180460C4675
:101F000016461F464046FFF79BFE05465DB12FB1C2
:101F1000032C08DC285D3043285504E0032C02DC48
:101F2000285DB0432855BDE8F0812DE9F041804699
:101F30000C4616461F464046FFF782FE05469DB1F9
:101F40004FB1032C10DC05F11000005D304305F1AA
:101F50001001085508E0032C06DC05F11000005DB7
:101F6000B04305F110010855BDE8F0812DE9F041BD
:101F700007460C4615463846FFF762FE064626B170
:101F8000032C02DC06F118000555BDE8F0812DE9AF
:101F9000F04107460C4615463846FFF751FE064607
:101FA00026B1032C02DC06F11C000555BDE8F081CA
:101FB00070B506460C463046FFF742FE0546DDB1D9
:101FC000032C19DC05F11400005D70BD00C0092070
:101FD00090800240B080024094800240B480024071
:101FE00084800240A480024088800240A880024091
:101FF0008C800240AC8002400020E6E7F0B5044649
:102000000B461546194660003B4A102901D310398A
:10201000401C52F820604FEA410C032707FA0CF7E6
:10202000BE4342F8206052F820604F0005FA07F7DF
:102030003E4342F82060F0BDF0B504460B4615461D
:10204000194660002C4A4032102901D31039401C37
:1020500052F820604FEA410C032707FA0CF7BE4301
:1020600042F8206052F820604F0005FA07F73E431F
:1020700042F82060F0BD30B50B461F496831012A97
:1020800007D151F8204001259D402C4341F82040C4
:1020900006E051F8204001259D40AC4341F8204026
:1020A00030BD012806D11449896A41F00801124A5D
:1020B000916206E028B91049896A21F008010E4AA8
:1020C00091627047012800D1052201B90A220A4B0A
:1020D000DA67704710B50446A27861782078FFF778
:1020E0008DFFE27861782078FFF7A6FF227961788A
:1020F0002078FFF7C0FF10BD00C0024070B5054654
:1021000035B1012D09D0022D0CD0032D14D10EE0D4
:102110000220FEF78EF804460EE00420FEF789F850
:10212000044609E02C20FEF784F8044604E02E2043
:10213000FEF77FF8044600BF00BF204670BD2DE9C2
:10214000F04781460C464846FFF7D8FF0026054673
:1021500000232946A1FB047C06FB04C205FB0321E6
:10216000FB4A384601F0CCFB05462846BDE8F0871F
:1021700001464FF0FF30B1F1402F01D100200DE0BA
:10218000F44A914201D1012008E0F34A914201D181
:10219000022003E0F14A914200D10320704770B55C
:1021A00005460C46B5F1402F08D0EA48854205D0D7
:1021B000E948854202D0E948854200D103E0AC21DC
:1021C000E7A0FEF799F84CB1012C07D0022C05D0FE
:1021D000032C03D0042C01D0052C00D103E0AD2149
:1021E000DFA0FEF789F828680121A1400840C6B2A7
:1021F0000EB1012070BD0020FCE770B505460C460D
:10220000B5F1402F08D0D348854205D0D248854249
:1022100002D0D248854200D103E0CA21D0A0FEF707
:102220006BF84CB1012C07D0022C05D0032C03D045
:10223000042C01D0052C00D103E0CB21C8A0FEF76F
:102240005BF82868211D01228A401040C6B20EB1F9
:10225000012070BD0020FCE770B505460C46B5F1C5
:10226000402F08D0BB48854205D0BB48854202D0EC
:10227000BA48854200D103E0E321B9A0FEF73CF85B
:102280004CB1012C07D0022C05D0032C03D0042C18
:1022900001D0052C00D103E0E421B1A0FEF72CF819
:1022A0000120A040286070BD70B505460C46B5F110
:1022B000402F08D0A748854205D0A748854202D0C4
:1022C000A648854200D103E0FA21A5A0FEF714F844
:1022D0004CB1012C07D0022C05D0032C03D0042CC8
:1022E00001D0052C00D103E0FB219DA0FEF704F8EE
:1022F000201D01218140296070BD20B90A460123BB
:102300001370536003E00A460023537000BF704708
:102310002DE9F04704460D461646B4F1402F08D08B
:102320008C48844205D08C48844202D08B48844239
:1023300000D104E040F2311189A0FDF7DDFF1DB1AD
:10234000012D01D000D000D104E04FF4997184A098
:10235000FDF7D2FFB4F1402F08D101210220FDF793
:1023600085FF00210220FDF71FFF22E0794884420B
:1023700008D101210420FDF779FF00210420FDF799
:1023800013FF16E07448844208D101218805FDF747
:102390006DFF00212C20FDF707FF0AE06F48844203
:1023A00007D10121C805FDF761FF00212E20FDF7AF
:1023B000FBFEA06A20F00300A062A06AA0620020D9
:1023C000A0602061E060606840F0020060606068CA
:1023D00020F00200606085B93746387818B978680F
:1023E000401EE06017E02046FFF7C2FE8146796894
:1023F000FFF7A5FE401EE0600DE0B046A06A20F0A9
:102400000C00A062464698F80100012803D1A06A9A
:1024100040F00400A0624FF0FF302060BDE8F0877C
:1024200010B50446B4F1402F08D04A48844205D084
:102430004948844202D04948844200D104E040F235
:102440007F1147A0FDF758FF00206060B4F1402FD6
:1024500004D100210220FDF709FF18E03D48844225
:1024600004D100210420FDF701FF10E03A48844226
:1024700005D100214FF48000FDF7F8FE07E0374852
:10248000844204D100214FF48000FDF7EFFE10BD1F
:1024900070B504460D46B4F1402F08D02D48844253
:1024A00005D02D48844202D02C48844200D104E05B
:1024B0004FF4D0712AA0FDF71FFF012D04D16068F1
:1024C00040F00100606003E0606820F0010060609F
:1024D00070BD10B50446B4F1402F08D01D488442A9
:1024E00005D01D48844202D01C48844200D104E03B
:1024F0004FF4DC711AA0FDF7FFFE606840F00200A7
:102500006060606820F00200606010BD70B5044635
:102510000D46B4F1402F08D00E48844205D00E4835
:10252000844202D00D48844200D104E040F2D71129
:102530000BA0FDF7E1FE287940B12879012805D0EC
:102540002879022802D0287903281BD120E0000036
:1025500040420F0000800040000009400040094058
:102560002E2E5C447269766572735C736F7572634C
:10257000655C6C7063313778785F74696D65722E55
:10258000630000004FF4EC71AFF22C00FDF7B4FED5
:10259000287830B1012807D0022808D003280CD1B0
:1025A00008E0A868A0610AE0A868E06107E0A86800
:1025B000206204E0A868606201E000BFFEE700BF9F
:1025C0006069297801EB41020721914088436061ED
:1025D000687838B16069297801EB410201219140A6
:1025E00008436061E87840B16069297801EB4101F6
:1025F000491C01228A4010436061A87840B160699B
:10260000297801EB4101891C01228A401043606155
:10261000E06B2978042202EB4102032191408843B8
:10262000E063287900F003002978042202EB4101DD
:102630008840E16B0843E06370BD70B504460E4608
:102640001546B4F1402F08D04348844205D0434892
:10265000844202D04248844200D105E040F20D217C
:10266000AFF20410FDF748FE36B1012E06D0022E5F
:1026700006D0032E08D105E0A56107E0E56105E07D
:10268000256203E0656201E000BFFEE700BF70BDA8
:1026900070B504460D46B4F1402F08D02E48844250
:1026A00005D02E48844202D02D48844200D105E056
:1026B00040F23321AFF25810FDF71EFEA06A2978D0
:1026C00001EB4102072191408843A062687838B14C
:1026D000A06A297801EB4102012191400843A062E0
:1026E000A87840B1A06A297801EB4101491C012278
:1026F0008A401043A062E87840B1A06A297801EBD3
:102700004101891C01228A401043A06270BD70B54E
:1027100004460D46B4F1402F08D00F48844205D03E
:102720000E48844202D00E48844200D105E040F2B7
:102730004E21AFF2D410FDF7DFFD0DB1012D00D118
:1027400005E040F24F21AFF2E810FDF7D5FD0DB9DD
:10275000E06A70BD206BFCE700800040000009408B
:10276000004009402DE9F04F8BB004468946002017
:102770000990FE48844204D10620FDF75AFD074621
:1027800016E0FB48844204D10820FDF752FD0746BD
:102790000EE0F848844204D13020FDF74AFD074698
:1027A00006E0F548844203D13220FDF742FD07469A
:1027B0004FF0FF3B00200790069000252E464FF07B
:1027C00001084DE00020089040E00898404400FBDC
:1027D00009FC0020010741EA171138070022A0FB7D
:1027E000083E01FB08E100FB02106246CDE9003023
:1027F0000023DDE9000101F083F8CDE9040104982C
:102800000390DDF814A00398B0F1004F04D90398A9
:10281000404203900AF1010ABAF1000F02D0BAF562
:10282000803F00D90FE0039858450BD2DDF80CB07B
:102830000026554608980790CDF81880BBF1000F88
:1028400000D106E000BF0898401C08900898404559
:10285000BBD300BFBBF1000F00D104E008F10108B9
:10286000B8F10F0FAED900BF002185EA0100714019
:10287000084302D10BB0BDE8F08F3809069900FB80
:1028800001FC0846079908440021A0FB052301FB31
:10289000053100FB06100346CDE90020604600210B
:1028A00001F02EF802900298814503D90298A9EB15
:1028B000000B02E00298A0EB090B64200BFB00F078
:1028C000B0FBF9FBBBF1030F32D2A948844216D109
:1028D000207B40F080002073280A40EA06602071C7
:1028E0002570207B00F07F002073F021069801EA1C
:1028F0000010079901F00F010843A06216E0207B49
:1029000040F080002073280A40EA0660207125709C
:10291000207B00F07F002073F021069801EA001070
:10292000079901F00F01084384F82800012009905D
:1029300009989FE770B504460D468C48844208D03C
:102940008B48844205D08B48844202D08A48844216
:1029500000D103E0CF2189A0FDF7CEFC687940B11A
:102960006879012805D06879022802D0687903289F
:1029700000D103E0D02181A0FDF7BEFCA87910B101
:10298000A879012800D103E0D1217CA0FDF7B4FC97
:10299000287958B12879012808D02879022805D04B
:1029A0002879032802D02879042800D103E0D22115
:1029B00072A0FDF7A1FC6D48844203D101210820DB
:1029C000FDF754FC6A48844203D101211020FDF731
:1029D0004DFC6848844203D101210806FDF746FCFE
:1029E0006548844203D101214806FDF73FFC604859
:1029F000844221D1072020720020207200E0267836
:102A0000207D10F0010FFAD1802084F8300000BF43
:102A1000207D10F0200FFBD0002084F83000606093
:102A200020732062207484F84C0084F8540084F8E9
:102A30005000267E267D18E007202072002020729C
:102A400000E02678207D10F0010FFAD1802084F874
:102A5000300000BF207D10F0200FFBD0002084F854
:102A60003000606020732062267D4348844202D19A
:102A7000002084F8240020462968FFF773FE3C48B4
:102A8000844203D1207B00F0C00602E0207B00F0EE
:102A9000C006687930B1012806D0022807D0032883
:102AA00008D108E000BF09E046F0010606E046F064
:102AB000020603E000BF46F0030600BF00BF28790E
:102AC000C0B146F008062879012806D0022806D0B1
:102AD000032807D004280BD107E000BF09E046F027
:102AE000100606E046F0200603E046F0300600E05F
:102AF00000BF00BFA87928B1012802D146F0040622
:102B000001E000BF00BF00BF1948844201D1267315
:102B100000E0267370BD70B504460D46134884422C
:102B200008D01348844205D01248844202D012488B
:102B3000844200D104E04FF47C7110A0FDF7DCFB6F
:102B40000DB1012D00D104E040F2F1310BA0FDF7F1
:102B5000D3FB012D2BD10648844221D194F83000BB
:102B600040F0800084F830002FE0000000C00040FA
:102B7000000001400080094000C009402E2E5C4446
:102B80007269766572735C736F757263655C6C7085
:102B900063313778785F756172742E6300000000CE
:102BA00094F8300040F0800084F830000DE0F948DF
:102BB000844205D194F83000002084F8300004E00D
:102BC00094F83000002084F8300070BD10B5044641
:102BD000F148844208D0EF48844205D0EF4884424F
:102BE00002D0EF48844200D105E040F29B11AFF2E1
:102BF0007400FDF781FB00212046FFF78CFFE648BB
:102C0000844203D100210820FDF730FBE1488442D3
:102C100003D100211020FDF729FBE048844204D1B4
:102C200000214FF08070FDF721FBDD48844204D184
:102C300000214FF00070FDF719FB10BD4FF4165145
:102C4000016003214171002101718171704770B5EC
:102C500004460D46D048844208D0CE48844205D070
:102C6000CE48844202D0CE48844200D105E040F2F2
:102C7000DF11AFF2F800FDF73FFBC648844201D1F7
:102C8000257000E0257070BD10B50446C24884422E
:102C900008D0C048844205D0C048844202D0C04811
:102CA000844200D105E04FF4FC71AFF23010FDF723
:102CB00023FBB848844201D1207810BD2078FCE77E
:102CC0002DE9FF5F80468A46934657465C46039847
:102CD000012824D100251FE04FF0FF3905E0B9F1AC
:102CE000000F00D106E0A9F1010998F8140010F0D6
:102CF000200FF4D000BFB9F1000F00D10EE0102674
:102D000007E017F8011B4046FFF7A1FF761E641E7F
:102D10006D1C0EB1002CF4D1002CDDD117E0002584
:102D200012E098F8140010F0200F00D10EE01026E9
:102D300007E017F8011B4046FFF789FF641E761E67
:102D40006D1C0EB1002CF4D1002CEAD100BF284636
:102D500004B0BDE8F09F2DE9F05F07468946924632
:102D60009B464E465546BBF1010F1DD1002418E08D
:102D70004FF0FF3805E0B8F1000F00D105E0A8F1F1
:102D80000108387D10F0010FF5D000BFB8F1000F39
:102D900000D108E03846FFF777FF06F8010B6D1EFB
:102DA000641C002DE4D110E000240BE0387D10F00D
:102DB000010F00D108E03846FFF766FF06F8010B67
:102DC000641C6D1E002DF1D100BF2046BDE8F09FB0
:102DD00010B504467048844208D06E48844205D03D
:102DE0006E48844202D06E48844200D105E040F231
:102DF0008A21AFF27820FDF77FFA6648844204D139
:102E0000207B40F04000207303E0207B40F0400036
:102E1000207310BD2DE9F04104460D4617465E486B
:102E2000844208D05B48844205D05C48844202D08A
:102E30005B48844200D105E040F2B121AFF2C420EA
:102E4000FDF75AFA0FB1012F00D105E040F2B2218F
:102E5000AFF2D820FDF750FA072D15D2DFE805F0C4
:102E60000406080A0C0E110001260DE002260BE0F4
:102E7000042609E0082607E0802605E04FF4807666
:102E800002E04FF4007600BF00BF4248844214D1F4
:102E90005DB1012D09D0022D07D0052D05D0062DDD
:102EA00003D0032D01D0042D00D116E040F2CE2135
:102EB000AFF23830FDF720FA0FE03DB1012D05D01B
:102EC000022D03D0052D01D0062D00D105E040F2E2
:102ED000D221AFF25830FDF70FFA012F0AD12D4859
:102EE000844203D160683043606013E0606830431F
:102EF00060600FE02748844206D1606840F28F315D
:102F0000B1430840606005E0606840F20731B143BA
:102F100008406060BDE8F08110B504461E48844258
:102F200008D01C48844205D01C48844202D01C486A
:102F3000844200D105E04FF44071AFF2C030FDF79C
:102F4000DBF91448844201D1007D10BD207DFCE7EF
:102F500010B504461048844208D00E48844205D07B
:102F60000E48844202D00E48844200D105E040F26F
:102F70001731AFF2F830FDF7BFF9A06840F2CF315A
:102F8000084010BD0146087D10F0400F0AD0002017
:102F9000704700000000014000C000400080094070
:102FA00000C009400120F3E770B506460C46002535
:102FB000F748864208D0F748864205D0F648864250
:102FC00002D0F648864200D105E040F23D31AFF232
:102FD0005440FDF791F9E07840B1E078012805D040
:102FE000E078022802D0E078032800D105E040F222
:102FF0003E31AFF27840FDF77FF9A07810B1A078AC
:10300000012800D105E040F23F31AFF29040FDF7DA
:1030100073F9207810B12078012800D105E04FF431
:103020005071AFF2A840FDF767F9607810B1607891
:10303000012800D105E040F24131AFF2C040FDF778
:103040005BF945F00105E07830B1012806D002288F
:1030500007D0032808D108E000BF09E045F040058B
:1030600006E045F0800503E000BF45F0C00500BF65
:1030700000BF6078012801D145F0040520780128BF
:1030800001D145F00205A078012801D145F00805DD
:10309000C048864203D105F0CF00307202E005F04F
:1030A000CF00307270BD00218170C17001210170AC
:1030B000417070472DE9F04104460F461546B4486B
:1030C000844208D0B348844205D0B348844202D039
:1030D000B248844200D105E04FF46671AFF264500B
:1030E000FDF70AF90DB1012D00D105E040F299314B
:1030F000AFF27850FDF700F90026012D09D138789C
:10310000012801D146F002067878012801D146F065
:103110000406A048844215D1012D10D1207B40F037
:1031200080002073002020702071207B20F0800020
:1031300020731020A06246F00100206218E00020F9
:10314000206215E0012D11D1207B40F0800020731A
:10315000002020702071207B20F080002073102040
:1031600084F8280046F00100206201E0002020627F
:10317000BDE8F08170B504460D468548844208D00C
:103180008448844205D08448844202D083488442E3
:1031900000D105E040F2D931AFF22060FDF7ACF884
:1031A0007C48844203D1206A2843206202E0206ADE
:1031B0002843206270BD70B504460D4677488442AE
:1031C00000D105E040F21A41AFF25060FDF794F8EB
:1031D0000DB1012D00D105E040F21B41AFF264605A
:1031E000FDF78AF8012D06D194F8240040F0020082
:1031F00084F8240006E02DB994F8240000F03D0086
:1032000084F8240070BD70B504460D4663488442BE
:1032100000D105E040F23241AFF2A060FDF76CF85A
:103220000DB1012D00D105E040F23341AFF2B460A1
:10323000FDF762F8012D06D194F8240040F001005A
:1032400084F8240005E094F8240000F03E0084F89F
:10325000240070BD2DE9F04105460C464F488542DB
:1032600000D105E040F25341AFF2F060FDF744F8C1
:103270006CB1012C0BD0022C09D0032C07D0042CEC
:1032800005D0052C03D0062C01D0072C00D105E079
:1032900040F25441AFF21C70FDF72EF86007870E24
:1032A00095F8240020F0380647F00400064306F0A5
:1032B0003F0085F82400BDE8F0812DE9F041044687
:1032C0000D46164600273348844200D105E040F2FF
:1032D0007341AFF25870FDF70FF80DB1012D00D119
:1032E00005E040F27441AFF26C70FDF705F80EB1E5
:1032F000012E00D105E040F27541AFF28070FCF77D
:10330000FBFF15B1012D04D101E0012702E00227E6
:1033100000E000BF00BF012E03D1207C38432074A1
:1033200004E0207CF321B94308402074BDE8F0811B
:103330002DE9F04104460D4617461648844200D157
:1033400005E040F29B41AFF2CC70FCF7D5FF1DB118
:10335000012D01D0022D00D105E040F29C41AFF2D9
:10336000E470FCF7C9FF0FB1012F00D105E040F276
:103370009D41AFF2F870FCF7BFFF25B1012D04D0DD
:10338000022D0FD10CE010260DE040260BE00000CE
:1033900000C00040000001400080094000C009401A
:1033A000802600E000BF00BF012F03D1207C304306
:1033B000207404E0207CF321B14308402074BDE870
:1033C000F08110B504467848844200D105E040F20F
:1033D000C641AFF65800FCF78FFF207E10BD70B5D8
:1033E00006460C467048864200D105E040F2DA41BC
:1033F000AFF67800FCF780FFA07810B1A078012824
:1034000000D105E040F2DB41AFF69000FCF774FF1D
:10341000E07810B1E078012800D105E040F2DC410D
:10342000AFF6A800FCF768FFE079FF2800DA05E0B6
:1034300040F2DD41AFF6BC00FCF75EFF607910B1F1
:103440006079012800D105E040F2DE41AFF6D400FA
:10345000FCF752FF207910B12079012800D105E056
:1034600040F2DF41AFF6EC00FCF746FFA079FF2801
:1034700000DA05E04FF49C61AFF60010FCF73CFF6A
:10348000207810B12078012800D105E040F2E14118
:10349000AFF61810FCF730FF607810B160780128A3
:1034A00000D105E040F2E241AFF63010FCF724FF16
:1034B0000025E07801280ED145F01005607901283B
:1034C00001D145F020052079012801D145F00805FA
:1034D000E07986F854002078012801D145F00105F3
:1034E000A078012804D145F00405A07986F85000A1
:1034F000607808B945F0020505F03F0086F84C00F9
:10350000307B40F03800307370BD012906D190F84F
:103510004C2022F0020280F84C2005E090F84C206C
:1035200042F0020280F84C2070472DE9F047044633
:10353000894692461F469FB1257BA84628F0100871
:1035400084F80C800123524649462046FFF7B8FB19
:10355000064600BF207D10F0400FFBD025730BE026
:103560000123524649462046FFF7AAFB064600BF04
:10357000207D10F0400FFBD03046BDE8F08713B53A
:10358000044601231A4601A92046FFF7CEFF1CBDC1
:1035900070B504460D46164600233246294620469D
:1035A000FFF7C3FF70BD00000000014009488047DD
:1035B00009480047FEE7FEE7FEE7FEE7FEE7FEE715
:1035C000FEE7FEE7FEE7FEE704480549034A054B30
:1035D0007047000091370000CD000000D8120010A5
:1035E000D8140010D81200102DE9F047B148006837
:1035F000C0F3016003287CD1AF48006810F00300DD
:1036000006D0012833D002285FD003282ED100E055
:1036100000BFA8480068C0F3074000F101044FF064
:103620000201A648D0F88800C0F30E0000F10100A6
:10363000A1FB0001A24B4FF0000CA0FB037901FBA2
:10364000039100FB0C1122466346384600F058F9FE
:1036500005469C480068C0B200F1010422464FF0C4
:103660000003284600F04CF9974908605DE0914856
:103670000068C0F3074000F101044FF002018F48D9
:10368000D0F88800C0F30E0000F10100A1FB00108B
:103690008E4A4FF0000CA1FB027900FB029001FB67
:1036A0000C0122466346384600F02AF90546854853
:1036B0000068C0B200F1010422464FF00003284622
:1036C00000F01EF9804908602FE07A480068C0F3D6
:1036D000074000F101044FF002017848D0F888005B
:1036E000C0F30E0000F10100A1FB00124FF40040F6
:1036F00000E01BE04FF00003A1FB007902FB00900B
:1037000001FB03012246384600F0FAF805466D48F1
:103710000068C0B200F1010422464FF000032846C1
:1037200000F0EEF86849086000BF2FE062480068CA
:1037300010F0030006D0012810D0022819D0032869
:1037400023D100E000BF5F480068C0B200F1010073
:103750005B49B1FBF0F05C49086016E0594800682D
:10376000C0B200F101005949B1FBF0F056490860C0
:103770000BE054480068C0B200F101004FF4004172
:10378000B1FBF0F05049086000BF00BFBDE8F08712
:1037900020204F4908604948D0F8A00110F0200FC0
:1037A00005D000BF4A48006810F0400FFAD003204F
:1037B000444908604FF000004049C1F8A80145495C
:1037C00008604FF001003C490860434843490860E5
:1037D0004FF0AA00424908604FF0550008604FF0D2
:1037E0000100404908604FF0AA003D4908604FF0D1
:1037F00055003249C1F88C0000BF2E48006810F017
:10380000806FFAD00320374908604FF0AA002B4997
:10381000C1F88C004FF055003149086000BF2548C1
:10382000006800F04070B0F1407FF8D123202E49AD
:1038300008604FF0AA002149C1F8AC004FF05500D4
:103840002A4908604FF00100294908604FF0AA009A
:10385000264908604FF055001849C1F8AC0000BF78
:103860002448006810F4806FFAD0032020490860D3
:103870004FF0AA001149C1F8AC004FF055001B49A8
:10388000086000BF1B48006800F44070B0F5407F3E
:10389000F8D11948194908604FF000000749C1F8EC
:1038A000C8010846006820F4704040F48040086079
:1038B0007047000088C00F400CC10F4000C00F408F
:1038C00000093D0004C10F4000030010001BB700B9
:1038D000A0C10F40ACC10F406300050084C00F4081
:1038E0008CC00F4080C00F40A4C00F40ACC00F4040
:1038F000A0C00F40A8C00F40DE872804C4C00F40FE
:1039000053EA020C00F069802DE9F04B4FF00006FD
:10391000002B1FBFB3FA83F503FA05F424FA05F66A
:103920005E4012BF1643B2FA82F502FA05F4C5F101
:1039300020051EBF22FA05FC44EA0C04203556EA95
:10394000044C4FEA144418BF641C4FF000084FF0B9
:103950000009904271EB030C39D3002919BFB1FA69
:1039600081F701FA07F6B0FA80F700FA07F6C7F117
:1039700020071EBF20FA07FC46EA0C062037B6FBDC
:10398000F4FCA7EB0507103F07F01F0BCBF1200657
:103990000CFA0BFB2CFA06F644BFB3460026202F88
:1039A000A4BF5E464FF0000B5BEA060C08BF4FF069
:1039B000010B19EB0B09ABFB027C48EB0608C01BA3
:1039C00006FB02CC0BFB03CC71EB0C01C1E70B46F1
:1039D000024641464846BDE8F08B13B54FF0000063
:1039E0004FF00001AFF30080BDE81C40704710B5F8
:1039F000203AC0F00B80B1E81850203AA0E81850E7
:103A0000B1E81850A0E81850BFF4F5AF5FEA027CA7
:103A100024BFB1E81850A0E8185044BF18C918C016
:103A2000BDE810405FEA827C24BF51F8043B40F8B7
:103A3000043B08BF7047D20728BF31F8023B48BF9C
:103A400011F8012B28BF20F8023B48BF00F8012BDA
:103A50007047704770477047754600F029F8AE46CA
:103A600005006946534620F00700854618B020B58A
:103A7000FFF7AAFDBDE820404FF000064FF0000719
:103A80004FF000084FF0000B21F00701AC46ACE806
:103A9000C009ACE8C009ACE8C009ACE8C0098D4673
:103AA00070470446AFF300802046FCF776FB000029
:103AB000004870477812001001491820ABBEFEE79D
:103AC0002600020070470000E83A000000000010E5
:103AD0000403000008010000A03B000004030010E4
:103AE000D411000064010000215201B207B206B2F5
:103AF00005720449324908E9042924690C9A080C22
:103B00009A090C9A0A0C9A0E0C9A0F5C293C81694E
:103B10003C41B2199A11189A120C9A130C9A150C6E
:103B20009A160C9A170C9A180C9A1A0C9A1B0C9A43
:103B30001CA89A100C69842904697829049A140C29
:103B4000698429046984290469842904698429040D
:103B500029E4690C9A1D0C9A1E0C5A1F08720269FE
:103B60000C6920290C691029089A030C9A040C9AF4
:103B7000050C9A060C9A070C9A080C5A090C294451
:103B80009A1C0C69A829685A1A0C011009101472A1
:103B900023A2FE2A0242B1025F440400E1F50500BF
:04000005000000CD2A
:00000001FF
